:100000000C9491000C94E2060C9409070C94B9002E
:100010000C94B9000C94B9000C94B9000C94B9007C
:100020000C94B9000C94B9000C94B9000C94B9006C
:100030000C94B9000C94B9000C94B9000C94B9005C
:100040000C9431070C94B9000C94060A0C94380AED
:100050000C94B9000C94B9000C94B9000C94B9003C
:100060000C94B9000C94B9000C94B9000C94B9002C
:100070000C94B9000C94B9000C94B9000C94B9001C
:100080000C94B9000C94B9000C94B9000C94B9000C
:100090000C94B9000C94B9000C94B9000C94B900FC
:1000A0000C94B9000C94B9000C94B9000C94B900EC
:1000B0000C94B9000A0D0E090003020000040508A3
:1000C000000000000000000000000000000000012F
:1000D00002040810204080010204081020010204DC
:1000E00008102040804001020408040404040404B1
:1000F00004040202020202020303030303030202D6
:10010000030505050500000000250028002B002E32
:100110000000000000240027002A002D0000AB068C
:10012000680A11241FBECFEFD8E0DEBFCDBF12E0BA
:10013000A0E0B1E0E4E2FFE102C005900D92A4313D
:10014000B107D9F722E0A4E1B2E001C01D92AF3EB1
:10015000B207E1F710E0C1E9D0E004C02197FE0149
:100160000E94860CCF38D107C9F70E94410C0C942D
:10017000900F0C94000083E292E00E94350570E03D
:1001800060E083E292E00C94440661E085E00E9426
:10019000630862E088E00E94630826E040E855E2D8
:1001A00060E070E08EE492E00E94B40922E030E06A
:1001B00040E150E06AE070E083E292E00E949C033C
:1001C00040EC5CED63E077E383E292E00E948E0511
:1001D000892B39F46AE071E08EE492E00E94FD0A16
:1001E000FFCF64E371E08EE492E00E94FD0A8EE4AA
:1001F00092E00E94E70A69E471E08EE492E00E94D6
:10020000FD0A6DE571E08EE492E00E94FD0A6EE762
:1002100071E08EE492E00E94FD0A62E971E08EE4F2
:1002200092E00E94FD0A8EE492E00E94E70A67E1F4
:1002300072E083E292E00E94080365E271E083E2EB
:1002400092E00E9452030C94BB0067EA71E08EE4D6
:1002500092E00E94FD0A0C94BB0083E292E00E94AF
:10026000C30483E292E00C942705CF93DF93EC0163
:100270000E942D0170E060E083E292E00E941B0684
:10028000BE0183E292E00E94D10A61E083E292E043
:10029000DF91CF910C941D048F929F92AF92BF92E9
:1002A000CF92DF92EF92FF920F931F936B017C012D
:1002B0000E947B07009118021091190220911A02E6
:1002C00030911B024B015C01801A910AA20AB30A09
:1002D000950184010C151D052E053F05A0F06093C6
:1002E00018027093190280931A0290931B0281E006
:1002F0001F910F91FF90EF90DF90CF90BF90AF9044
:100300009F908F90089580E0F3CFCF92DF92EF928D
:10031000FF920F931F930E947B070091140210918C
:10032000150220911602309117026B017C01C01A50
:10033000D10AE20AF30A97018601083E134021051B
:10034000310520F160931402709315028093160218
:100350009093170280911C0290911D02892B89F4C1
:1003600081E090E090931D0280931C0260911C023A
:1003700085E01F910F91FF90EF90DF90CF900C944C
:100380009F0810921D0210921C02F0CF1F910F9136
:10039000FF90EF90DF90CF900895CF93DF93CDB78C
:1003A000DEB72C970FB6F894DEBF0FBECDBF68E85E
:1003B00073E180E090E00E944C01882379F16EEABD
:1003C00071E0CE0107960E948C0B6DEB71E0CE01BF
:1003D00007960E94ED0B0E947B07AB01BC01CE018A
:1003E00007960E940F0CBE01695F7F4FCE010196F8
:1003F0000E94B80BCE0101960E943501CE010196F4
:100400000E941A0B6DEC71E08EE492E00E94FD0AEE
:100410000E948501CE0107960E941A0B2C960FB6FA
:10042000F894DEBF0FBECDBFDF91CF910895CF937B
:10043000DF9300D000D000D0CDB7DEB763E172E02B
:10044000CE0101960E948C0B83E292E00E94F4039D
:10045000892B51F083E292E00E940204682FCE01C2
:1004600001960E94FC0BF0CF6BED71E08EE492E000
:100470000E94DF0ABE016F5F7F4F8EE492E00E9410
:10048000EB0ACE0101960E941A0B26960FB6F8943D
:10049000DEBF0FBECDBFDF91CF910895CF93CFB711
:1004A000F89480912102811127C0E4EFF0E084915B
:1004B000E9EDF0E09491E82FF0E0EE0FFF1FEF5E22
:1004C000FE4FA591B491EC91E92321F461E08AE01B
:1004D0000E949F0861E08AE00E9463088CB58061F9
:1004E0008CBD8CB580648CBD61E08DE00E9463089A
:1004F00061E08BE00E946308809121028F5F80930E
:100500002102CFBFCF9108952FB7F89491E08823AF
:1005100039F092E0813021F082E08093200290E077
:1005200080911F02892B80931F02809120028111EC
:1005300003C081E0809320022FBF08959091200294
:100540009230A1F09FB7F894882321F0813079F0A0
:1005500080E001C081E0809520911F02822380937A
:100560001F02811102C0109220029FBF089582E0F5
:10057000F2CF90E080E00895CF93DF931F92CDB744
:10058000DEB76983DC01ED91FC910280F381E02DFF
:1005900041E050E0BE016F5F7F4F09950F90DF9102
:1005A000CF9108950895FC011382128288EE93E0A2
:1005B000A0E0B0E084839583A683B78381EF91E0C8
:1005C0009183808380E5848781E0858782E292E061
:1005D000978786878AE090E0918B808B89E090E016
:1005E000938B828B82E090E0958B848B168A178A9E
:1005F000108E118E138E128E158E148E178E168EEF
:1006000011A210A240E050E0BA01CF010C94140BEB
:10061000CF93DF93EC017F8F6E8F8C899D89672B41
:1006200029F160E00E9463088C899D8982309105E0
:10063000A9F00397A9F481E00E9484028C899D8926
:100640008230910579F0039779F481E043E050E03E
:1006500067EA76E0DF91CF910C94B00680E0ECCFB2
:100660008FEFEACF80E0F2CF8FEFF0CF82309105AD
:1006700089F0039789F481E00E94D0068C899D89D6
:100680008230910559F0039759F481E0DF91CF91C1
:100690000C949E0280E0F0CF8FEFEECF80E0F6CF9B
:1006A0008FEFF4CFCF93DF93EC0179A368A38C890C
:1006B0009D89672B29F160E00E9463088C899D89E0
:1006C00082309105A9F00397A9F481E00E94840289
:1006D0008C899D898230910579F0039779F481E0C6
:1006E00043E050E067EA76E0DF91CF910C94B006EA
:1006F00080E0ECCF8FEFEACF80E0F2CF8FEFF0CF4A
:100700008230910589F0039789F481E00E94D00638
:100710008C899D898230910559F0039759F481E0C5
:10072000DF91CF910C949E0280E0F0CF8FEFEECF5F
:1007300080E0F6CF8FEFF4CFFC01718B608B538B91
:10074000428B358B248B08950F931F93CF93DF93A8
:10075000EC01062F142F60E088890E949F083C85D9
:100760002D8580912002882381F09FB7F894809195
:100770002002813081F58DB380931E024DB38091AC
:100780001F02809584238DBB9FBF3CBD2DBD0EBD38
:1007900000000DB407FEFDCF8EB51EBD00000DB4E8
:1007A00007FEFDCF1EB580912002882351F09FB730
:1007B000F8942091200280911E02213079F48DBBA3
:1007C0009FBF61E088890E949F08812FDF91CF91B0
:1007D0001F910F91089590931E02D7CF8FBFF1CF35
:1007E0006F7740E00C94A403CF93DF93EC0163E1B7
:1007F0000E94F00390E02A8D3B8D821B930BDF91CA
:10080000CF910895CF93DF93EC01E881F9810084C3
:10081000F185E02D0995892B69F08A8D9B8D0196D4
:100820009B8F8A8F60E0CE010E94F00390E0DF9101
:10083000CF9108958FEF9FEFFACF1F93CF93DF9360
:10084000EC01162F662349F088A199A1892B29F084
:1008500040E460ECCE010E94A40343E861E8CE01CD
:100860000E94A40311110EC062E1CE010E94F003A8
:1008700083FD03C00E943007F7CF48E062E9CE0154
:100880000E94A40381E090E0DF91CF911F91089531
:10089000CF93DF93EC0161E00E94F003837083301B
:1008A00069F062E1CE010E94F00383FF05C048E0D9
:1008B00062E9CE010E94A40380E001C081E0DF91E3
:1008C000CF910895AF92BF92CF92DF92FF920F9394
:1008D0001F93CF93DF936C015B01EA0162E20E94F8
:1008E000F003F82E90E09C012C0F3D1F2F3F3105A7
:1008F00029F020F0CFEFD0E0C81BD90B8501AC0E5A
:10090000BD1E0A151B0541F0F80141918F0160E8F9
:10091000C6010E94A403F5CF4C2F4F0D62EAC60119
:100920000E94A403CE01DF91CF911F910F91FF9000
:10093000DF90CF90BF90AF9008950F931F93CF9308
:10094000DF93EC01E881F9810084F185E02D0995C0
:10095000892BB1F06DE0CE010E94F003082F60E01A
:10096000CE010E94F003182F402F6DE8CE010E94A7
:10097000A403812F90E0DF91CF911F910F910895F3
:100980008FEF9FEFF8CF41E861E80C94A40340E8B3
:1009900061E80C94A4039F92AF92BF92CF92DF9232
:1009A000EF92FF920F931F93CF93DF93EC01DB0144
:1009B000CA018E8B9F8BA88FB98F6A017B01FF0CB8
:1009C000CC08DC2C76019A01AB016C2D7C2D8C2D92
:1009D0009C2D03E10E94EB0CA12CE8E4BE2EF8EE66
:1009E000CF2EDD24D394E12CF12C00E010E00E9406
:1009F0008E0CF22E932E5A01162FC72ED82EE92ECA
:100A000000E10E94060D422F66E8CE010E94A40379
:100A10002F2D392DA501612F7C2D8D2D9E2D08E0C8
:100A20000E94060D422F67E8CE010E94A4034F2DBD
:100A300068E8CE01DF91CF911F910F91FF90EF9069
:100A4000DF90CF90BF90AF909F900C94A403CF9372
:100A5000DF93EC0146E663EB0E94A40349E16BEBF4
:100A6000CE01DF91CF910C94A403CF93DF93EC01DF
:100A700047E263EB0E94A4034DE16BEBCE01DF91F3
:100A8000CF910C94A4039C01693778F4462F4D5202
:100A9000550BCA0165E070E00E94500C6F71462F43
:100AA00040626BE8C9010C94A403613F30F4862FC7
:100AB00090E04E966AE070E0EFCF6BE1EFCF0F93DE
:100AC0001F93CF93DF938C01EB0162317105D4F05A
:100AD0006531710514F0C4E1D0E0239747E86DEC6F
:100AE000C8010E94A4036CE8C8010E9443054C2F72
:100AF0004250406869E8C801DF91CF911F910F9182
:100B00000C94A4036230710514F4C2E0D0E044E810
:100B10006DECC8010E94A40364E6E6CFCF92DF9299
:100B2000EF92FF92CF93DF93EC016A017B0161E0CA
:100B300088890E94630861E088890E949F088A89E9
:100B40009B898F3F9807B9F061E00E94630860E0DD
:100B50008A890E949F086AE070E080E090E00E942D
:100B6000AC0761E08A890E949F086AE070E080E03B
:100B700090E00E94AC070E944E0262E4CE010E9407
:100B8000F003823191F5CE010E94C704B701A6019E
:100B9000CE010E94CB0440E06EE8CE010E94A40387
:100BA00040E06FE8CE010E94A4036CE0CE010E94F9
:100BB000F003482F43606CE8CE010E94A40344E098
:100BC00066EACE010E94A40361E170E0CE010E94BA
:100BD0005F05CE010E94C30481E090E0DF91CF91D8
:100BE000FF90EF90DF90CF90089590E080E0F6CFF7
:100BF000CF93DF93EC011D8E1C8E6DE10E94F003FC
:100C0000482F4E7F6DE9CE01DF91CF910C94A40364
:100C1000CF93DF93EC0181E090E09D8F8C8F6DE1AD
:100C2000CE010E94F003482F41606DE9CE01DF91B3
:100C3000CF910C94A4030F931F93CF93DF93EC01F8
:100C40008B010E94480481111CC0CE010E94C30484
:100C5000CE01012B99F00E94080640E06DE8CE011C
:100C60000E94A40340E062EACE010E94A40381E056
:100C700090E0DF91CF911F910F9108950E94F805A8
:100C8000ECCF90E080E0F5CF0F931F93CF93DF93ED
:100C9000EC018B0140E060EC0E94A403CE01101631
:100CA000110684F40E940806402F62EACE010E94D9
:100CB000A40345E861E8CE01DF91CF911F910F9128
:100CC0000C94A4030E94F805F4CF0F931F93CF93C5
:100CD000DF93EC0162E10E94F003182F482F62E9D4
:100CE000CE010E94A40315FD2DC016FF20C01B8E4F
:100CF0001A8E8C8D9D8D62E2892B09F463E1CE0101
:100D00000E94F003082F10E060E1CE010E94F00382
:100D1000482F6DE8CE010E94A403EE8DFF8D309721
:100D200089F0C801DF91CF911F910F91099413FFB2
:100D300009C0E8A1F9A1309729F0DF91CF911F9167
:100D40000F910994DF91CF911F910F91089583E244
:100D500092E00C94650683E292E00C94D30208952D
:100D60008230E8F4E82FF0E0EE0FFF1FEA5FFE4F5D
:100D700071836083813041F0809169008C7F482BC2
:100D800040936900E89A089580916900837F440F39
:100D9000551F440F551F482B40936900E99A089549
:100DA000823068F4E82FF0E0813051F0E898EE0FDF
:100DB000FF1FEA5FFE4F8FEA96E0918380830895DC
:100DC000E998F5CF1F920F920FB60F9211242F932F
:100DD0003F934F935F936F937F938F939F93AF93C3
:100DE000BF93EF93FF93E0910601F09107010995FE
:100DF000FF91EF91BF91AF919F918F917F916F91F3
:100E00005F914F913F912F910F900FBE0F901F90C8
:100E100018951F920F920FB60F9211242F933F93A4
:100E20004F935F936F937F938F939F93AF93BF93F2
:100E3000EF93FF93E0910801F09109010995FF916B
:100E4000EF91BF91AF919F918F917F916F915F9142
:100E50004F913F912F910F900FBE0F901F901895BB
:100E600008951F920F920FB60F9211242F933F9364
:100E70008F939F93AF93BF9380914A0290914B02BF
:100E8000A0914C02B0914D023091490220E3230F12
:100E90002D3768F123EB230F4196A11DB11D20933F
:100EA000490280934A0290934B02A0934C02B09364
:100EB0004D028091450290914602A0914702B09167
:100EC00048020196A11DB11D8093450290934602F0
:100ED000A0934702B0934802BF91AF919F918F9129
:100EE0003F912F910F900FBE0F901F901895409635
:100EF000A11DB11DD4CF2FB7F89460914A02709113
:100F00004B0280914C0290914D022FBF08953FB744
:100F1000F8948091450290914602A0914702B091C9
:100F2000480226B5A89B05C02F3F19F00196A11DC8
:100F3000B11D3FBFBA2FA92F982F8827BC01CD0123
:100F4000620F711D811D911D46E0660F771F881F7E
:100F5000991F4A95D1F708958F929F92AF92BF92B1
:100F6000CF92DF92EF92FF926B017C010E94870784
:100F70004B015C01C114D104E104F104E9F00E94C9
:100F800030070E948707681979098A099B09683E1A
:100F900073408105910570F321E0C21AD108E10880
:100FA000F10888EE880E83E0981EA11CB11CC114C4
:100FB000D104E104F10429F7FF90EF90DF90CF9086
:100FC000BF90AF909F908F900895789484B5836080
:100FD00084BD85B5836085BDEEE6F0E080818160EB
:100FE000808382E080938100E0E8F0E0808181608E
:100FF0008083E1EBF0E0808184608083E0EBF0E0CF
:10100000808181608083E1E9F0E08081836080837A
:10101000E0E9F0E0808181608083E1EAF0E08081B6
:1010200083608083E0EAF0E080818160808383E8F0
:1010300080937A001092C100089582508D3008F09C
:101040003EC0E82FF0E0E95DF74F0C94860C5C0899
:10105000600834083A085F085F083E0844084808FA
:101060004E085F0852085808809180008F7780935F
:1010700080000895809180008F7DF9CF8091B0002D
:101080008F778093B00008958091B0008F7DF9CF65
:10109000809190008F7780939000089580919000C8
:1010A0008F7DF9CF8091A0008F778093A000089565
:1010B0008091A0008F7DF9CF84B58F7784BD08958E
:1010C00084B58F7DFBCFCF93DF9390E0FC01E1539C
:1010D000FF4F249186519F4FFC0184918823C9F0D2
:1010E00090E0880F991FFC01EF5EFE4FA591B4912F
:1010F000FC01EB5FFE4FC591D49161110DC09FB70C
:10110000F8948C91209582238C93888128232883BE
:101110009FBFDF91CF910895623051F49FB7F8944B
:101120003C91822F809583238C93E8812E2BEFCFE7
:101130008FB7F894EC912E2B2C938FBFEACF1F938F
:10114000CF93DF93282F30E0F901EC54FF4F8491C7
:10115000F901E153FF4FD491F901E651FF4FC491DA
:10116000CC23A9F0162F81110E941D08EC2FF0E06E
:10117000EE0FFF1FEB5FFE4FA591B4918FB7F89470
:10118000EC91111108C0D095DE23DC938FBFDF9165
:10119000CF911F910895DE2BF8CFFC01918D228D08
:1011A000892F90E0805C9F4F821B91098F73992754
:1011B0000895FC01918D828D981731F0828DE80F92
:1011C000F11D858D90E008958FEF9FEF0895FC014C
:1011D000918D828D981761F0A28DAE0FBF2FB11D3A
:1011E0005D968C91928D9F5F9F73928F90E0089592
:1011F0008FEF9FEF0895FC01538D448D252F30E034
:10120000842F90E0821B930B541710F0CF96089513
:10121000019708958EE59AE0892B49F080E090E0EF
:10122000892B29F00E945E0A81110E94000080E053
:1012300090E0892B49F080E090E0892B29F00E9412
:10124000000081110C9400000895FC01A48DA80FEA
:10125000B92FB11DA35ABF4F2C91848D90E00196F8
:101260008F739927848FA689B7892C93A089B18918
:101270008C91837080648C93938D848D981306C0B9
:101280000288F389E02D80818F7D80830895CF933C
:10129000DF93EC01888D8823B9F0AA89BB89E8899E
:1012A000F9898C9185FD03C0808186FD0DC00FB644
:1012B00007FCF7CF8C9185FFF2CF808185FFEDCFC2
:1012C000CE010E942509E9CFDF91CF910895EF92D9
:1012D000FF920F931F93CF93DF93EC0181E0888FF0
:1012E0009B8D8C8D98131AC0E889F989808185FFC0
:1012F00015C09FB7F894EE89FF896083E889F98962
:1013000080818370806480839FBF81E090E0DF9163
:10131000CF911F910F91FF90EF900895F62E0B8DB6
:1013200010E00F5F1F4F0F731127E02E8C8D8E1171
:101330000CC00FB607FCFACFE889F989808185FFD8
:10134000F5CFCE010E942509F1CFEB8DEC0FFD2FDB
:10135000F11DE35AFF4FF0829FB7F8940B8FEA8993
:10136000FB8980818062CFCFCF92DF92EF92FF9294
:101370001F93CF93DF93EC016A017B01122F60E989
:1013800070ED83E090E0A70196010E94640C21506B
:101390003109410951095695479537952795E889AF
:1013A000F98982E08083211580E1380798F0E88987
:1013B000F989108268E478EE81E090E0A701960157
:1013C0000E94640C215031094109510956954795F5
:1013D00037952795EC85FD853083EE85FF85208345
:1013E000188EEC89FD891083EA89FB8980818869E0
:1013F0008083EA89FB8980818F7D8083DF91CF9113
:101400001F91FF90EF90DF90CF9008951F920F9261
:101410000FB60F9211242F938F939F93EF93FF9307
:10142000E0915E02F0915F028081E0916402F091B0
:10143000650282FD1BC09081809167028F5F8F7370
:1014400020916802821741F0E0916702F0E0E25BD0
:10145000FD4F958F80936702FF91EF919F918F9140
:101460002F910F900FBE0F901F9018958081F4CF91
:101470001F920F920FB60F9211242F933F934F9309
:101480005F936F937F938F939F93AF93BF93EF93EC
:10149000FF938EE492E00E942509FF91EF91BF91A6
:1014A000AF919F918F917F916F915F914F913F91FC
:1014B0002F910F900FBE0F901F9018958EE492E021
:1014C0000E94CD0821E0892B09F420E0822F0895A5
:1014D000EEE4F2E01382128288EE93E0A0E0B0E046
:1014E00084839583A683B78383E092E0918380838E
:1014F00085EC90E09587848784EC90E097878687D9
:1015000080EC90E0918B808B81EC90E0938B828BD0
:1015100082EC90E0958B848B86EC90E0978B868BA9
:10152000118E128E138E148E0895AF92BF92CF92A9
:10153000DF92EF92FF920F931F93CF93DF936C0193
:101540007B018B01040F151FEB015E01AE18BF0874
:10155000C017D10759F06991D601ED91FC91019026
:10156000F081E02DC6010995892B79F7C501DF913E
:10157000CF911F910F91FF90EF90DF90CF90BF9090
:10158000AF900895FB0101900020E9F73197AF017A
:10159000461B570BDC01ED91FC910280F381E02D9D
:1015A0000994DB0114964D915C9115976D917C9196
:1015B000DC01ED91FC910280F381E02D099461152D
:1015C000710511F00C94C20A90E080E0089561E189
:1015D00072E00C94C20A0F931F93CF93DF93EC0138
:1015E0000E94D10A8C01CE010E94E70A800F911F50
:1015F000DF91CF911F910F9108950F931F93CF9378
:10160000DF938C01D0E0C0E06115710519F00E94F4
:10161000C20AEC01C8010E94E70A8C0F9D1FDF91EE
:10162000CF911F910F910895FC01448355836683E8
:1016300077830895FC0180819181009711F00C94CB
:10164000D10D0895CF93DF93EC01888199810097A4
:1016500011F00E94D10D198218821D821C821B82FA
:101660001A82DF91CF9108950F931F93CF93DF9349
:10167000EC018B016F5F7F4F888199810E945A0E28
:10168000009751F0998388831B830A8381E0DF915F
:10169000CF911F910F91089580E0F9CFCF93DF9301
:1016A000EC0188819981892B49F08A819B81861779
:1016B000970720F081E0DF91CF910895CE010E943D
:1016C000340B8823C1F38C819D81892B99F7E881A4
:1016D000F9811082EFCFEF92FF920F931F93CF9378
:1016E000DF93EC017B018A01BA010E944E0B81114C
:1016F0000BC0CE010E94220BCE01DF91CF911F9132
:101700000F91FF90EF9008951D830C83B70188819E
:1017100099810E94200FF0CFFC0111821082138268
:101720001282158214826115710551F0FB0101903E
:101730000020E9F73197AF01461B570B0C946B0B58
:101740000895CF93DF93EC01FB018617970749F0CB
:10175000608171816115710541F0448155810E945C
:101760006B0BCE01DF91CF9108950E94220BF9CF30
:10177000FC011182108213821282158214820C9451
:10178000A10BEF92FF920F931F93CF93DF936115FD
:10179000710541F480E0DF91CF911F910F91FF908F
:1017A000EF90089541155105B1F07B01EC010C81DA
:1017B0001D81040F151FB8010E944E0B882351F3A1
:1017C000288139818C819D81B701820F931F0E94EE
:1017D000200F1D830C8381E0DECF6115710551F070
:1017E000FB0101900020E9F73197AF01461B570B31
:1017F0000C94C10B80E00895CF93DF9300D0CDB758
:10180000DEB769831A8241E050E0BE016F5F7F4F0F
:101810000E94C10B0F900F90DF91CF910895EF922E
:10182000FF920F931F93CF93DF93CDB7DEB72D9722
:101830000FB6F894DEBF0FBECDBF7C01CB01BA015D
:101840002AE08E010F5F1F4FA8010E94270FF801A9
:1018500001900020E9F73197AF01401B510BB8010F
:10186000C7010E94C10B2D960FB6F894DEBF0FBEC4
:10187000CDBFDF91CF911F910F91FF90EF90089511
:1018800008950E94E5070E94400C0E94C500CAE02E
:10189000D9E00E94CD012097E1F30E940A09F9CF17
:1018A00097FB072E16F4009407D077FD09D00E940D
:1018B000210D07FC05D03EF4909581959F4F08952A
:1018C000709561957F4F0895A1E21A2EAA1BBB1B4C
:1018D000FD010DC0AA1FBB1FEE1FFF1FA217B307FC
:1018E000E407F50720F0A21BB30BE40BF50B661F12
:1018F000771F881F991F1A9469F7609570958095D6
:1019000090959B01AC01BD01CF010895EE0FFF1F23
:101910000590F491E02D0994689401C0E8948F92A9
:101920009F92CF93DF930E949A0CDF91CF919F906B
:101930008F90089588249924F401E401B0E49F93E2
:10194000AA279A158B049C04ED05FE05CF05D00748
:10195000A10798F4AD2FDC2FCF2FFE2FE92D982C67
:10196000892E982F872F762F652F542F432F322FB4
:101970002227B85031F7BF9127C01B2EBF91BB273C
:10198000220F331F441F551F661F771F881F991F83
:10199000881C991CEE1FFF1FCC1FDD1FAA1FBB1F39
:1019A0008A149B04EC05FD05CE05DF05A007B107F1
:1019B00048F08A189B08EC09FD09CE09DF09A00B45
:1019C000B10B21601A94E1F62EF49401AF01BE012F
:1019D000CD01000C0895002E083090F0982F872F2D
:1019E000762F652F542F432F322F22270850F4CF04
:1019F000220F331F441F551F661F771F881F991F13
:101A00000A95B2F7002D089597FD1094002E083026
:101A100098F00850232F342F452F562F672F782FFB
:101A2000892F912DF4CF1594979587957795679584
:101A300057954795379527950A95AAF71124002DB4
:101A40000895AA1BBB1B51E107C0AA1FBB1FA61705
:101A5000B70710F0A61BB70B881F991F5A95A9F757
:101A600080959095BC01CD0108950F931F93CF935E
:101A7000DF938230910510F482E090E0E091ED0276
:101A8000F091EE0230E020E0B0E0A0E0309799F471
:101A90002115310509F44AC0281B390B24303105C2
:101AA000D8F58A819B816115710589F1FB019383CA
:101AB0008283FE0111C04081518102811381481748
:101AC0005907E0F04817590799F4109761F01296FA
:101AD0000C93129713961C933296CF01DF91CF91FE
:101AE0001F910F9108950093ED021093EE02F4CF31
:101AF0002115310551F04217530738F0A901DB01D8
:101B00009A01BD01DF01F801C1CFEF01F9CF909338
:101B1000EE028093ED02CDCFFE01E20FF31F819321
:101B200091932250310939832883D7CF2091EB023A
:101B30003091EC02232B41F42091020130910301FA
:101B40003093EC022093EB022091000130910101CF
:101B50002115310541F42DB73EB740910401509154
:101B60000501241B350BE091EB02F091EC02E2172A
:101B7000F307A0F42E1B3F0B2817390778F0AC01B0
:101B80004E5F5F4F2417350748F04E0F5F1F50938D
:101B9000EC024093EB02819391939FCFF0E0E0E061
:101BA0009CCFCF93DF930097E9F0FC01329713822B
:101BB0001282A091ED02B091EE02ED0130E020E042
:101BC0001097A1F420813181820F931F2091EB02A5
:101BD0003091EC022817390709F061C0F093EC024C
:101BE000E093EB02DF91CF910895EA01CE17DF0772
:101BF000E8F54A815B819E0141155105B1F7E90184
:101C0000FB83EA8349915991C40FD51FEC17FD0757
:101C100061F4808191810296840F951FE901998377
:101C20008883828193819B838A83F0E0E0E012962F
:101C30008D919C9113970097B9F52D913C91119737
:101C4000CD010296820F931F2091EB023091EC029E
:101C50002817390739F6309751F51092EE02109295
:101C6000ED02B093EC02A093EB02BCCFD383C2830E
:101C700040815181840F951FC817D90761F44E5FC9
:101C80005F4F88819981480F591F518340838A8112
:101C90009B81938382832115310509F0B0CFF093A6
:101CA000EE02E093ED029ECFFD01DC01C0CF138276
:101CB0001282D7CFB0E0A0E0E0E6FEE00C945B0F2C
:101CC0008C01009751F4CB010E94350D8C01C801A5
:101CD000CDB7DEB7E0E10C94770FFC01E60FF71FFC
:101CE0009C0122503109E217F30708F49DC0D90185
:101CF000CD91DC911197C617D70798F0C530D10563
:101D000030F3CE0104978617970708F3C61BD70B4D
:101D10002297C193D1936D937C93CF010E94D10DF3
:101D2000D6CF5B01AC1ABD0A4C018C0E9D1EA09152
:101D3000ED02B091EE02512C412CF12CE12C1097C8
:101D400031F58091EB029091EC028815990509F02C
:101D50005CC04616570608F058C08091000190916B
:101D60000101009741F48DB79EB740910401509155
:101D70000501841B950BE817F90708F055C0F0938F
:101D8000EC02E093EB02F90171836083A0CF8D91A7
:101D90009C91119712966C90129713967C901397C2
:101DA000A815B90559F56C0142E0C40ED11CCA143E
:101DB000DB0420F1AC014A195B09DA011296159790
:101DC00080F06282738251834083D9016D937C934A
:101DD000E114F10471F0D7011396FC93EE9312977E
:101DE00076CF22968C0F9D1FF90191838083F3019A
:101DF000EFCFF093EE02E093ED0269CF481659065B
:101E000008F42C017D01D3019ACFCB010E94350D3E
:101E10007C01009749F0AE01B8010E94170FC8017C
:101E20000E94D10D870153CF10E000E050CFFB019D
:101E3000DC0102C001900D9241505040D8F7089546
:101E4000FB01DC0101900D920020E1F70895BB2712
:101E5000FA01A62F6217710581059105330B30FB3E
:101E600066F0AA27660F771F881F991FAA1FA2175F
:101E700010F0A21B63953850A9F7A05DAA3308F0B3
:101E8000A95DA19336F7B111B1931082CA010C94E8
:101E9000490FDC01FC01672F71917723E1F732973D
:101EA00004C07C916D9370836291AE17BF07C8F335
:101EB00008952F923F924F925F926F927F928F92EE
:101EC0009F92AF92BF92CF92DF92EF92FF920F93C9
:101ED0001F93CF93DF93CDB7DEB7CA1BDB0B0FB6D3
:101EE000F894DEBF0FBECDBF09942A883988488890
:101EF0005F846E847D848C849B84AA84B984C88426
:101F0000DF80EE80FD800C811B81AA81B981CE0F1C
:101F1000D11D0FB6F894DEBF0FBECDBFED01089501
:041F2000F894FFCF63
:101F24000000EF028000AF0600004C6F5261206990
:101F34006E6974206661696C65642E20436865630C
:101F44006B20796F757220636F6E6E656374696F51
:101F54006E732E004C6F526120696E697420737524
:101F6400636365656465642E004C6F526120536938
:101F74006D706C652047617465776179004F6E6C94
:101F8400792072656365697665206D657373616731
:101F940065732066726F6D206E6F6465730054788C
:101FA4003A20696E76657274495120656E61626C7F
:101FB400650052783A20696E7665727449512064DE
:101FC400697361626C65005478446F6E650048659E
:101FD4004C6F526120576F726C6421200049276D49
:101FE4002061204761746577617921200053656E13
:101FF40064204D657373616765210047617465777B
:10200400617920526563656976653A2000000000B5
:1020140000BC026204B902D202F40302049D04006B
:102024000000006709950AFB084709CD08E708D9AD
:04203400080D0A0089
:00000001FF
